{
  "contractName": "PduSessionManager",
  "abi": [
    {
      "inputs": [
        {
          "internalType": "uint256",
          "name": "",
          "type": "uint256"
        }
      ],
      "name": "sessions",
      "outputs": [
        {
          "internalType": "uint256",
          "name": "id",
          "type": "uint256"
        }
      ],
      "stateMutability": "view",
      "type": "function",
      "constant": true
    },
    {
      "inputs": [
        {
          "internalType": "uint256",
          "name": "_id",
          "type": "uint256"
        }
      ],
      "name": "addSession",
      "outputs": [],
      "stateMutability": "nonpayable",
      "type": "function"
    },
    {
      "inputs": [
        {
          "internalType": "uint256",
          "name": "_id",
          "type": "uint256"
        }
      ],
      "name": "getSession",
      "outputs": [
        {
          "components": [
            {
              "internalType": "uint256",
              "name": "id",
              "type": "uint256"
            }
          ],
          "internalType": "struct PduSessionManager.Session",
          "name": "",
          "type": "tuple"
        }
      ],
      "stateMutability": "view",
      "type": "function",
      "constant": true
    }
  ],
  "bytecode": "0x608060405234801561001057600080fd5b50610328806100206000396000f3fe608060405234801561001057600080fd5b50600436106100405760003560e01c80628cd74014610045578063402ff0db1461006157806383c4b7a314610091575b600080fd5b61005f600480360381019061005a91906101c7565b6100c1565b005b61007b600480360381019061007691906101c7565b6100f2565b604051610088919061028a565b60405180910390f35b6100ab60048036038101906100a691906101c7565b610181565b6040516100b891906102a5565b60405180910390f35b6040518060200160405280828152506000808381526020019081526020016000206000820151816000015590505050565b6100fa61019f565b6000806000848152602001908152602001600020600001541415610153576040517f08c379a000000000000000000000000000000000000000000000000000000000815260040161014a9061026a565b60405180910390fd5b6000808381526020019081526020016000206040518060200160405290816000820154815250509050919050565b60006020528060005260406000206000915090508060000154905081565b6040518060200160405280600081525090565b6000813590506101c1816102db565b92915050565b6000602082840312156101d957600080fd5b60006101e7848285016101b2565b91505092915050565b60006101fd6016836102c0565b91507f53657373696f6e20646f6573206e6f74206578697374000000000000000000006000830152602082019050919050565b602082016000820151610246600085018261024c565b50505050565b610255816102d1565b82525050565b610264816102d1565b82525050565b60006020820190508181036000830152610283816101f0565b9050919050565b600060208201905061029f6000830184610230565b92915050565b60006020820190506102ba600083018461025b565b92915050565b600082825260208201905092915050565b6000819050919050565b6102e4816102d1565b81146102ef57600080fd5b5056fea2646970667358221220777483e07feeae572f9c8eb6c9cf213b667b2df9c3d572b3433fcd944839c24b64736f6c63430008000033",
  "immutableReferences": {},
  "source": "// SPDX-License-Identifier: MIT\npragma solidity ^0.8.0;\n\ncontract PduSessionManager {\n    struct Session {\n        uint id;\n        // Add other session details if necessary\n    }\n\n    mapping(uint => Session) public sessions;\n\n    function addSession(uint _id) public {\n        sessions[_id] = Session(_id);\n    }\n\n    function getSession(uint _id) public view returns (Session memory) {\n        require(sessions[_id].id != 0, \"Session does not exist\");\n        return sessions[_id];\n    }\n}\n",
  "sourcePath": "/home/henok/ntn-5g-bl/ethereum/contracts/PduSessionManager.sol",
  "compiler": {
    "name": "solc",
    "version": "0.8.0+commit.c7dfd78e.Emscripten.clang"
  },
  "schemaVersion": "3.4.16",
  "updatedAt": "2024-06-12T05:42:41.622Z",
  "networkType": "ethereum",
  "devdoc": {
    "kind": "dev",
    "methods": {},
    "version": 1
  },
  "userdoc": {
    "kind": "user",
    "methods": {},
    "version": 1
  }
}