{
  "contractName": "TrafficControl",
  "abi": [
    {
      "inputs": [
        {
          "internalType": "address",
          "name": "device",
          "type": "address"
        }
      ],
      "name": "authorizeDevice",
      "outputs": [],
      "stateMutability": "nonpayable",
      "type": "function"
    },
    {
      "inputs": [
        {
          "internalType": "address",
          "name": "device",
          "type": "address"
        }
      ],
      "name": "deauthorizeDevice",
      "outputs": [],
      "stateMutability": "nonpayable",
      "type": "function"
    },
    {
      "inputs": [
        {
          "internalType": "address",
          "name": "device",
          "type": "address"
        }
      ],
      "name": "isAuthorized",
      "outputs": [
        {
          "internalType": "bool",
          "name": "",
          "type": "bool"
        }
      ],
      "stateMutability": "view",
      "type": "function",
      "constant": true
    }
  ],
  "bytecode": "0x608060405234801561001057600080fd5b506102aa806100206000396000f3fe608060405234801561001057600080fd5b50600436106100415760003560e01c80631e25074914610046578063933eb9ca14610062578063fe9fbb801461007e575b600080fd5b610060600480360381019061005b91906101cc565b6100ae565b005b61007c600480360381019061007791906101cc565b610108565b005b610098600480360381019061009391906101cc565b610162565b6040516100a59190610204565b60405180910390f35b60008060008373ffffffffffffffffffffffffffffffffffffffff1673ffffffffffffffffffffffffffffffffffffffff16815260200190815260200160002060006101000a81548160ff02191690831515021790555050565b60016000808373ffffffffffffffffffffffffffffffffffffffff1673ffffffffffffffffffffffffffffffffffffffff16815260200190815260200160002060006101000a81548160ff02191690831515021790555050565b60008060008373ffffffffffffffffffffffffffffffffffffffff1673ffffffffffffffffffffffffffffffffffffffff16815260200190815260200160002060009054906101000a900460ff169050919050565b6000813590506101c68161025d565b92915050565b6000602082840312156101de57600080fd5b60006101ec848285016101b7565b91505092915050565b6101fe81610231565b82525050565b600060208201905061021960008301846101f5565b92915050565b600061022a8261023d565b9050919050565b60008115159050919050565b600073ffffffffffffffffffffffffffffffffffffffff82169050919050565b6102668161021f565b811461027157600080fd5b5056fea264697066735822122032470a3479cdd98846480ef45f15fed4c1c870a4d8d0be51fe4b2d4fe1c67f6964736f6c63430008000033",
  "immutableReferences": {},
  "source": "// SPDX-License-Identifier: MIT\npragma solidity ^0.8.0;\n\ncontract TrafficControl {\n    mapping(address => bool) private authorizedDevices;\n\n    function authorizeDevice(address device) public {\n        authorizedDevices[device] = true;\n    }\n\n    function deauthorizeDevice(address device) public {\n        authorizedDevices[device] = false;\n    }\n\n    function isAuthorized(address device) public view returns (bool) {\n        return authorizedDevices[device];\n    }\n}",
  "sourcePath": "/home/henok/ntn-5g-bl/ethereum/contracts/TrafficControl.sol",
  "compiler": {
    "name": "solc",
    "version": "0.8.0+commit.c7dfd78e.Emscripten.clang"
  },
  "schemaVersion": "3.4.16",
  "updatedAt": "2024-06-19T17:20:02.322Z",
  "networkType": "ethereum",
  "devdoc": {
    "kind": "dev",
    "methods": {},
    "version": 1
  },
  "userdoc": {
    "kind": "user",
    "methods": {},
    "version": 1
  }
}